:060000000A128A11142906
:10000800F000030EF1000B1810200B191820710EC8
:100018008300F00E700E090003138312061E850A72
:10002800861F85030B1008003D3081000B11A60ABE
:020038000800BE
:100200008A010A1482073F3406345B344F34663463
:100210006D347D3407347F346F3477347C34393433
:100220005E347934713476341C212C2137214421F9
:100230004C2183218D2118290317831688018901F8
:100240000313831685018701880189010616861725
:1002500015169517811308000F178F120F160F141C
:1002600081120112811101158114011408008B17EC
:100270008B168B151616961708000A302002031DE0
:100280004329A001A10A08000313831285018701F5
:1002900088018901030108000508A700A8010830AA
:1002A000A9000310A70DA80D0A302802031C592924
:1002B000A800A90B52292808A000A70D2708A7000D
:1002C000A8010830A9000310A70DA80D0A302802C4
:1002D000031C6B29A800A90B64292808A100A70DFD
:1002E0002708A700A8010830A9000310A70DA80D32
:1002F0000A302802031C7D29A800A90B76292808AA
:10030000A200A70D080020080021A3002108002159
:10031000A40022080021A5000800A6189B29261881
:1003200096290910230887000915080009112408D7
:10033000870089140800891025088700091408001F
:04400E00D420FF3F7C
:00000001FF
