:060000000A128A11142906
:10000800F000030EF1000B1810200B191820710EC8
:100018008300F00E700E090003138312061E850A72
:10002800861F85030B100800643081000B11013016
:04003800A506080011
:100200008A010A1482073F3406345B344F34663463
:100210006D347D3407347F346F3477347C34393433
:100220005E347934713476341E212E2139213F21F8
:1002300049215021572125088800182903178316C2
:1002400088018901031383168501870188018901CB
:100250000616861715169517811308000F178F12AB
:100260000F160F1481120112811101118114011452
:1002700008008B178B168B1516169617080003139C
:10028000831285018701880189010130A5000301DE
:10029000080005080F39A000050E0F39A10008005D
:1002A00020080021A20021080021A3000800251C2D
:1002B0005E29091022088700891408008910230884
:0602C0008700091408008C
:04400E00D420FF3F7C
:00000001FF
