:060000000A128A11142906
:10000800F000030EF1000B1810200B191820710EC8
:100018008300F00E700E090003138312061E850A72
:10002800861F85030B100800D93081000B11A60A22
:020038000800BE
:100200008A010A1482073F3406345B344F34663463
:100210006D347D3407347F346F3477347C34393433
:100220005E347934713476341C212C2137213D2100
:1002300045217C218621182903178316880189010D
:100240000313831685018701880189010616861725
:1002500015169517811308000F178F120F160F141C
:1002600081120112811101158114011408008B17EC
:100270008B168B151616961708000313831285012B
:10028000870188018901030108000508A700A8016A
:100290000830A9000310A70DA80D0A302802031C7E
:1002A0005229A800A90B4B292808A000A70D270850
:1002B000A700A8010830A9000310A70DA80D0A3057
:1002C0002802031C6429A800A90B5D292808A100A5
:1002D000A70D2708A700A8010830A9000310A70D43
:1002E000A80D0A302802031C7629A800A90B6F2943
:1002F0002808A200A70D080020080021A30021085B
:100300000021A40022080021A5000800A6189429B5
:1003100026188F29091023088700091508000911DC
:10032000240887008914080089102508870009140B
:020330000800C3
:04400E00D420FF3F7C
:00000001FF
